{
  "address": "0x0d643d264ADAC3B9B40584D478763D2493c896B2",
  "abi": [
    {
      "inputs": [],
      "stateMutability": "nonpayable",
      "type": "constructor"
    },
    {
      "anonymous": false,
      "inputs": [
        {
          "indexed": true,
          "internalType": "address",
          "name": "owner",
          "type": "address"
        },
        {
          "indexed": true,
          "internalType": "address",
          "name": "approved",
          "type": "address"
        },
        {
          "indexed": true,
          "internalType": "uint256",
          "name": "tokenId",
          "type": "uint256"
        }
      ],
      "name": "Approval",
      "type": "event"
    },
    {
      "anonymous": false,
      "inputs": [
        {
          "indexed": true,
          "internalType": "address",
          "name": "owner",
          "type": "address"
        },
        {
          "indexed": true,
          "internalType": "address",
          "name": "operator",
          "type": "address"
        },
        {
          "indexed": false,
          "internalType": "bool",
          "name": "approved",
          "type": "bool"
        }
      ],
      "name": "ApprovalForAll",
      "type": "event"
    },
    {
      "anonymous": false,
      "inputs": [
        {
          "indexed": false,
          "internalType": "uint256",
          "name": "_fromTokenId",
          "type": "uint256"
        },
        {
          "indexed": false,
          "internalType": "uint256",
          "name": "_toTokenId",
          "type": "uint256"
        }
      ],
      "name": "BatchMetadataUpdate",
      "type": "event"
    },
    {
      "anonymous": false,
      "inputs": [
        {
          "indexed": false,
          "internalType": "uint8",
          "name": "version",
          "type": "uint8"
        }
      ],
      "name": "Initialized",
      "type": "event"
    },
    {
      "anonymous": false,
      "inputs": [
        {
          "indexed": false,
          "internalType": "uint256",
          "name": "_tokenId",
          "type": "uint256"
        }
      ],
      "name": "MetadataUpdate",
      "type": "event"
    },
    {
      "anonymous": false,
      "inputs": [
        {
          "indexed": true,
          "internalType": "bytes32",
          "name": "role",
          "type": "bytes32"
        },
        {
          "indexed": true,
          "internalType": "bytes32",
          "name": "previousAdminRole",
          "type": "bytes32"
        },
        {
          "indexed": true,
          "internalType": "bytes32",
          "name": "newAdminRole",
          "type": "bytes32"
        }
      ],
      "name": "RoleAdminChanged",
      "type": "event"
    },
    {
      "anonymous": false,
      "inputs": [
        {
          "indexed": true,
          "internalType": "bytes32",
          "name": "role",
          "type": "bytes32"
        },
        {
          "indexed": true,
          "internalType": "address",
          "name": "account",
          "type": "address"
        },
        {
          "indexed": true,
          "internalType": "address",
          "name": "sender",
          "type": "address"
        }
      ],
      "name": "RoleGranted",
      "type": "event"
    },
    {
      "anonymous": false,
      "inputs": [
        {
          "indexed": true,
          "internalType": "bytes32",
          "name": "role",
          "type": "bytes32"
        },
        {
          "indexed": true,
          "internalType": "address",
          "name": "account",
          "type": "address"
        },
        {
          "indexed": true,
          "internalType": "address",
          "name": "sender",
          "type": "address"
        }
      ],
      "name": "RoleRevoked",
      "type": "event"
    },
    {
      "anonymous": false,
      "inputs": [
        {
          "indexed": true,
          "internalType": "address",
          "name": "from",
          "type": "address"
        },
        {
          "indexed": true,
          "internalType": "address",
          "name": "to",
          "type": "address"
        },
        {
          "indexed": true,
          "internalType": "uint256",
          "name": "tokenId",
          "type": "uint256"
        }
      ],
      "name": "Transfer",
      "type": "event"
    },
    {
      "inputs": [],
      "name": "DEFAULT_ADMIN_ROLE",
      "outputs": [
        {
          "internalType": "bytes32",
          "name": "",
          "type": "bytes32"
        }
      ],
      "stateMutability": "view",
      "type": "function"
    },
    {
      "inputs": [],
      "name": "MINTER_ROLE",
      "outputs": [
        {
          "internalType": "bytes32",
          "name": "",
          "type": "bytes32"
        }
      ],
      "stateMutability": "view",
      "type": "function"
    },
    {
      "inputs": [],
      "name": "_tokenIdCounter",
      "outputs": [
        {
          "internalType": "uint256",
          "name": "_value",
          "type": "uint256"
        }
      ],
      "stateMutability": "view",
      "type": "function"
    },
    {
      "inputs": [
        {
          "internalType": "address",
          "name": "to",
          "type": "address"
        },
        {
          "internalType": "uint256",
          "name": "tokenId",
          "type": "uint256"
        }
      ],
      "name": "approve",
      "outputs": [],
      "stateMutability": "nonpayable",
      "type": "function"
    },
    {
      "inputs": [
        {
          "internalType": "address",
          "name": "owner",
          "type": "address"
        }
      ],
      "name": "balanceOf",
      "outputs": [
        {
          "internalType": "uint256",
          "name": "",
          "type": "uint256"
        }
      ],
      "stateMutability": "view",
      "type": "function"
    },
    {
      "inputs": [
        {
          "internalType": "address",
          "name": "registry",
          "type": "address"
        },
        {
          "internalType": "address",
          "name": "implementation",
          "type": "address"
        },
        {
          "internalType": "uint256",
          "name": "tokenId",
          "type": "uint256"
        }
      ],
      "name": "createAccount",
      "outputs": [
        {
          "internalType": "address",
          "name": "tba",
          "type": "address"
        }
      ],
      "stateMutability": "nonpayable",
      "type": "function"
    },
    {
      "inputs": [
        {
          "internalType": "uint256",
          "name": "tokenId",
          "type": "uint256"
        }
      ],
      "name": "getApproved",
      "outputs": [
        {
          "internalType": "address",
          "name": "",
          "type": "address"
        }
      ],
      "stateMutability": "view",
      "type": "function"
    },
    {
      "inputs": [
        {
          "internalType": "bytes32",
          "name": "role",
          "type": "bytes32"
        }
      ],
      "name": "getRoleAdmin",
      "outputs": [
        {
          "internalType": "bytes32",
          "name": "",
          "type": "bytes32"
        }
      ],
      "stateMutability": "view",
      "type": "function"
    },
    {
      "inputs": [
        {
          "internalType": "bytes32",
          "name": "role",
          "type": "bytes32"
        },
        {
          "internalType": "address",
          "name": "account",
          "type": "address"
        }
      ],
      "name": "grantRole",
      "outputs": [],
      "stateMutability": "nonpayable",
      "type": "function"
    },
    {
      "inputs": [
        {
          "internalType": "bytes32",
          "name": "role",
          "type": "bytes32"
        },
        {
          "internalType": "address",
          "name": "account",
          "type": "address"
        }
      ],
      "name": "hasRole",
      "outputs": [
        {
          "internalType": "bool",
          "name": "",
          "type": "bool"
        }
      ],
      "stateMutability": "view",
      "type": "function"
    },
    {
      "inputs": [
        {
          "internalType": "string",
          "name": "_name",
          "type": "string"
        },
        {
          "internalType": "string",
          "name": "_symbol",
          "type": "string"
        },
        {
          "internalType": "address",
          "name": "_owner",
          "type": "address"
        },
        {
          "internalType": "string",
          "name": "uri",
          "type": "string"
        },
        {
          "internalType": "address",
          "name": "registry",
          "type": "address"
        },
        {
          "internalType": "address",
          "name": "implementation",
          "type": "address"
        }
      ],
      "name": "initialize",
      "outputs": [],
      "stateMutability": "nonpayable",
      "type": "function"
    },
    {
      "inputs": [
        {
          "internalType": "address",
          "name": "owner",
          "type": "address"
        },
        {
          "internalType": "address",
          "name": "operator",
          "type": "address"
        }
      ],
      "name": "isApprovedForAll",
      "outputs": [
        {
          "internalType": "bool",
          "name": "",
          "type": "bool"
        }
      ],
      "stateMutability": "view",
      "type": "function"
    },
    {
      "inputs": [
        {
          "internalType": "address",
          "name": "to",
          "type": "address"
        },
        {
          "internalType": "string",
          "name": "uri",
          "type": "string"
        }
      ],
      "name": "mint",
      "outputs": [],
      "stateMutability": "nonpayable",
      "type": "function"
    },
    {
      "inputs": [],
      "name": "name",
      "outputs": [
        {
          "internalType": "string",
          "name": "",
          "type": "string"
        }
      ],
      "stateMutability": "view",
      "type": "function"
    },
    {
      "inputs": [
        {
          "internalType": "uint256",
          "name": "tokenId",
          "type": "uint256"
        }
      ],
      "name": "ownerOf",
      "outputs": [
        {
          "internalType": "address",
          "name": "",
          "type": "address"
        }
      ],
      "stateMutability": "view",
      "type": "function"
    },
    {
      "inputs": [
        {
          "internalType": "bytes32",
          "name": "role",
          "type": "bytes32"
        },
        {
          "internalType": "address",
          "name": "account",
          "type": "address"
        }
      ],
      "name": "renounceRole",
      "outputs": [],
      "stateMutability": "nonpayable",
      "type": "function"
    },
    {
      "inputs": [
        {
          "internalType": "bytes32",
          "name": "role",
          "type": "bytes32"
        },
        {
          "internalType": "address",
          "name": "account",
          "type": "address"
        }
      ],
      "name": "revokeRole",
      "outputs": [],
      "stateMutability": "nonpayable",
      "type": "function"
    },
    {
      "inputs": [
        {
          "internalType": "address",
          "name": "from",
          "type": "address"
        },
        {
          "internalType": "address",
          "name": "to",
          "type": "address"
        },
        {
          "internalType": "uint256",
          "name": "tokenId",
          "type": "uint256"
        }
      ],
      "name": "safeTransferFrom",
      "outputs": [],
      "stateMutability": "nonpayable",
      "type": "function"
    },
    {
      "inputs": [
        {
          "internalType": "address",
          "name": "from",
          "type": "address"
        },
        {
          "internalType": "address",
          "name": "to",
          "type": "address"
        },
        {
          "internalType": "uint256",
          "name": "tokenId",
          "type": "uint256"
        },
        {
          "internalType": "bytes",
          "name": "data",
          "type": "bytes"
        }
      ],
      "name": "safeTransferFrom",
      "outputs": [],
      "stateMutability": "nonpayable",
      "type": "function"
    },
    {
      "inputs": [
        {
          "internalType": "address",
          "name": "operator",
          "type": "address"
        },
        {
          "internalType": "bool",
          "name": "approved",
          "type": "bool"
        }
      ],
      "name": "setApprovalForAll",
      "outputs": [],
      "stateMutability": "nonpayable",
      "type": "function"
    },
    {
      "inputs": [
        {
          "internalType": "bytes4",
          "name": "interfaceId",
          "type": "bytes4"
        }
      ],
      "name": "supportsInterface",
      "outputs": [
        {
          "internalType": "bool",
          "name": "",
          "type": "bool"
        }
      ],
      "stateMutability": "view",
      "type": "function"
    },
    {
      "inputs": [],
      "name": "symbol",
      "outputs": [
        {
          "internalType": "string",
          "name": "",
          "type": "string"
        }
      ],
      "stateMutability": "view",
      "type": "function"
    },
    {
      "inputs": [
        {
          "internalType": "uint256",
          "name": "tokenId",
          "type": "uint256"
        }
      ],
      "name": "tokenURI",
      "outputs": [
        {
          "internalType": "string",
          "name": "",
          "type": "string"
        }
      ],
      "stateMutability": "view",
      "type": "function"
    },
    {
      "inputs": [
        {
          "internalType": "address",
          "name": "from",
          "type": "address"
        },
        {
          "internalType": "address",
          "name": "to",
          "type": "address"
        },
        {
          "internalType": "uint256",
          "name": "tokenId",
          "type": "uint256"
        }
      ],
      "name": "transferFrom",
      "outputs": [],
      "stateMutability": "nonpayable",
      "type": "function"
    }
  ],
  "transactionHash": "0x26760fd49e224060f076caf0a3292ecce09a5fa51324f781535631b565d823dd",
  "args": [],
  "numDeployments": 1,
  "solcInputHash": "bf3967f20fdf682de5d144ca4874ea13",
  "bytecode": "0x608060405234801561001057600080fd5b5061001961001e565b6100dd565b600054610100900460ff161561008a5760405162461bcd60e51b815260206004820152602760248201527f496e697469616c697a61626c653a20636f6e747261637420697320696e697469604482015266616c697a696e6760c81b606482015260840160405180910390fd5b60005460ff908116146100db576000805460ff191660ff9081179091556040519081527f7f26b83ff96e1f2b6a682f133852f6798a09c465da95921460cefb38474024989060200160405180910390a15b565b61225680620000ed6000396000f3fe608060405234801561001057600080fd5b50600436106101585760003560e01c806370a08231116100c3578063b88d4fde1161007c578063b88d4fde146102e3578063c87b56dd146102f6578063d0def52114610309578063d53913931461031c578063d547741f14610343578063e985e9c51461035657600080fd5b806370a082311461029057806384c4bd4b146102a357806391d14854146102ad57806395d89b41146102c0578063a217fddf146102c8578063a22cb465146102d057600080fd5b8063248a9ca311610115578063248a9ca3146102005780632f2ff15d1461023157806336568abe1461024457806342842e0e146102575780635cddc82b1461026a5780636352211e1461027d57600080fd5b806301ffc9a71461015d57806306fdde0314610185578063081812fc1461019a578063095ea7b3146101c55780631230aea2146101da57806323b872dd146101ed575b600080fd5b61017061016b36600461197b565b610392565b60405190151581526020015b60405180910390f35b61018d6103a3565b60405161017c91906119e8565b6101ad6101a83660046119fb565b610435565b6040516001600160a01b03909116815260200161017c565b6101d86101d3366004611a29565b61045c565b005b6101ad6101e8366004611a55565b610576565b6101d86101fb366004611a55565b610620565b61022361020e3660046119fb565b600090815260c9602052604090206001015490565b60405190815260200161017c565b6101d861023f366004611a96565b610651565b6101d8610252366004611a96565b610676565b6101d8610265366004611a55565b6106f4565b6101d8610278366004611bbb565b61070f565b6101ad61028b3660046119fb565b610909565b61022361029e366004611c8a565b610969565b60fb546102239081565b6101706102bb366004611a96565b6109ef565b61018d610a1a565b610223600081565b6101d86102de366004611ca7565b610a29565b6101d86102f1366004611cda565b610a34565b61018d6103043660046119fb565b610a6c565b6101d8610317366004611d5a565b610a77565b6102237f9f2df0fed2c77648de5860a4cc508cd0818c85b8b8a1ab4ceeef8d981c8956a681565b6101d8610351366004611a96565b610ad0565b610170610364366004611daa565b6001600160a01b039182166000908152606a6020908152604080832093909416825291909152205460ff1690565b600061039d82610af5565b92915050565b6060606580546103b290611dd8565b80601f01602080910402602001604051908101604052809291908181526020018280546103de90611dd8565b801561042b5780601f106104005761010080835404028352916020019161042b565b820191906000526020600020905b81548152906001019060200180831161040e57829003601f168201915b5050505050905090565b600061044082610b1a565b506000908152606960205260409020546001600160a01b031690565b600061046782610909565b9050806001600160a01b0316836001600160a01b0316036104d95760405162461bcd60e51b815260206004820152602160248201527f4552433732313a20617070726f76616c20746f2063757272656e74206f776e656044820152603960f91b60648201526084015b60405180910390fd5b336001600160a01b03821614806104f557506104f58133610364565b6105675760405162461bcd60e51b815260206004820152603d60248201527f4552433732313a20617070726f76652063616c6c6572206973206e6f7420746f60448201527f6b656e206f776e6572206f7220617070726f76656420666f7220616c6c00000060648201526084016104d0565b6105718383610b7c565b505050565b6040805160048082526024820183526020820180516001600160e01b031663204a7f0760e21b179052915163da7323b360e01b81526000926001600160a01b0387169263da7323b3926105d5928892469230928a928a92909101611e12565b6020604051808303816000875af11580156105f4573d6000803e3d6000fd5b505050506040513d601f19601f820116820180604052508101906106189190611e5b565b949350505050565b61062a3382610bea565b6106465760405162461bcd60e51b81526004016104d090611e78565b610571838383610c68565b600082815260c9602052604090206001015461066c81610dcc565b6105718383610dd6565b6001600160a01b03811633146106e65760405162461bcd60e51b815260206004820152602f60248201527f416363657373436f6e74726f6c3a2063616e206f6e6c792072656e6f756e636560448201526e103937b632b9903337b91039b2b63360891b60648201526084016104d0565b6106f08282610e5c565b5050565b61057183838360405180602001604052806000815250610a34565b600054610100900460ff161580801561072f5750600054600160ff909116105b806107495750303b158015610749575060005460ff166001145b6107ac5760405162461bcd60e51b815260206004820152602e60248201527f496e697469616c697a61626c653a20636f6e747261637420697320616c72656160448201526d191e481a5b9a5d1a585b1a5e995960921b60648201526084016104d0565b6000805460ff1916600117905580156107cf576000805461ff0019166101001790555b61084289898080601f01602080910402602001604051908101604052809392919081815260200183838082843760009201919091525050604080516020601f8d018190048102820181019092528b815292508b91508a9081908401838280828437600092019190915250610ec392505050565b61084a610ef4565b610852610ef4565b61085d600086610dd6565b6108877f9f2df0fed2c77648de5860a4cc508cd0818c85b8b8a1ab4ceeef8d981c8956a686610dd6565b610892856000610f1d565b61089d600085610f37565b6108ab60fb80546001019055565b6108b783836000610576565b5080156108fe576000805461ff0019169055604051600181527f7f26b83ff96e1f2b6a682f133852f6798a09c465da95921460cefb38474024989060200160405180910390a15b505050505050505050565b6000818152606760205260408120546001600160a01b03168061039d5760405162461bcd60e51b8152602060048201526018602482015277115490cdcc8c4e881a5b9d985b1a59081d1bdad95b88125160421b60448201526064016104d0565b60006001600160a01b0382166109d35760405162461bcd60e51b815260206004820152602960248201527f4552433732313a2061646472657373207a65726f206973206e6f7420612076616044820152683634b21037bbb732b960b91b60648201526084016104d0565b506001600160a01b031660009081526068602052604090205490565b600091825260c9602090815260408084206001600160a01b0393909316845291905290205460ff1690565b6060606680546103b290611dd8565b6106f0338383611002565b610a3e3383610bea565b610a5a5760405162461bcd60e51b81526004016104d090611e78565b610a66848484846110d0565b50505050565b606061039d82611103565b7f9f2df0fed2c77648de5860a4cc508cd0818c85b8b8a1ab4ceeef8d981c8956a6610aa181610dcc565b6000610aac60fb5490565b9050610abc60fb80546001019055565b610ac68482610f1d565b610a668184610f37565b600082815260c96020526040902060010154610aeb81610dcc565b6105718383610e5c565b60006001600160e01b03198216637965db0b60e01b148061039d575061039d8261120b565b6000818152606760205260409020546001600160a01b0316610b795760405162461bcd60e51b8152602060048201526018602482015277115490cdcc8c4e881a5b9d985b1a59081d1bdad95b88125160421b60448201526064016104d0565b50565b600081815260696020526040902080546001600160a01b0319166001600160a01b0384169081179091558190610bb182610909565b6001600160a01b03167f8c5be1e5ebec7d5bd14f71427d1e84f3dd0314c0f7b2291e5b200ac8c7c3b92560405160405180910390a45050565b600080610bf683610909565b9050806001600160a01b0316846001600160a01b03161480610c3d57506001600160a01b038082166000908152606a602090815260408083209388168352929052205460ff165b806106185750836001600160a01b0316610c5684610435565b6001600160a01b031614949350505050565b826001600160a01b0316610c7b82610909565b6001600160a01b031614610ca15760405162461bcd60e51b81526004016104d090611ec5565b6001600160a01b038216610d035760405162461bcd60e51b8152602060048201526024808201527f4552433732313a207472616e7366657220746f20746865207a65726f206164646044820152637265737360e01b60648201526084016104d0565b826001600160a01b0316610d1682610909565b6001600160a01b031614610d3c5760405162461bcd60e51b81526004016104d090611ec5565b600081815260696020908152604080832080546001600160a01b03199081169091556001600160a01b0387811680865260688552838620805460001901905590871680865283862080546001019055868652606790945282852080549092168417909155905184937fddf252ad1be2c89b69c2b068fc378daa952ba7f163c4a11628f55a4df523b3ef91a4505050565b610b798133611230565b610de082826109ef565b6106f057600082815260c9602090815260408083206001600160a01b03851684529091529020805460ff19166001179055610e183390565b6001600160a01b0316816001600160a01b0316837f2f8788117e7eff1d82e926ec794901d17c78024a50270940304540a733656f0d60405160405180910390a45050565b610e6682826109ef565b156106f057600082815260c9602090815260408083206001600160a01b0385168085529252808320805460ff1916905551339285917ff6391f5c32d9c69d2a47ea670b442974b53935d1edc7fd64eb21e047a839171b9190a45050565b600054610100900460ff16610eea5760405162461bcd60e51b81526004016104d090611f0a565b6106f08282611289565b600054610100900460ff16610f1b5760405162461bcd60e51b81526004016104d090611f0a565b565b6106f08282604051806020016040528060008152506112c9565b6000828152606760205260409020546001600160a01b0316610fb25760405162461bcd60e51b815260206004820152602e60248201527f45524337323155524953746f726167653a2055524920736574206f66206e6f6e60448201526d32bc34b9ba32b73a103a37b5b2b760911b60648201526084016104d0565b6000828152609760205260409020610fca8282611fa3565b506040518281527ff8e1a15aba9398e019f0b49df1a4fde98ee17ae345cb5f6b5e2c27f5033e8ce79060200160405180910390a15050565b816001600160a01b0316836001600160a01b0316036110635760405162461bcd60e51b815260206004820152601960248201527f4552433732313a20617070726f766520746f2063616c6c65720000000000000060448201526064016104d0565b6001600160a01b038381166000818152606a6020908152604080832094871680845294825291829020805460ff191686151590811790915591519182527f17307eab39ab6107e8899845ad3d59bd9653f200f220920489ca2b5937696c31910160405180910390a3505050565b6110db848484610c68565b6110e7848484846112fc565b610a665760405162461bcd60e51b81526004016104d090612063565b606061110e82610b1a565b6000828152609760205260408120805461112790611dd8565b80601f016020809104026020016040519081016040528092919081815260200182805461115390611dd8565b80156111a05780601f10611175576101008083540402835291602001916111a0565b820191906000526020600020905b81548152906001019060200180831161118357829003601f168201915b5050505050905060006111be60408051602081019091526000815290565b905080516000036111d0575092915050565b8151156112025780826040516020016111ea9291906120b5565b60405160208183030381529060405292505050919050565b610618846113fd565b60006001600160e01b03198216632483248360e11b148061039d575061039d82611471565b61123a82826109ef565b6106f057611247816114c1565b6112528360206114d3565b6040516020016112639291906120e4565b60408051601f198184030181529082905262461bcd60e51b82526104d0916004016119e8565b600054610100900460ff166112b05760405162461bcd60e51b81526004016104d090611f0a565b60656112bc8382611fa3565b5060666105718282611fa3565b6112d3838361166f565b6112e060008484846112fc565b6105715760405162461bcd60e51b81526004016104d090612063565b60006001600160a01b0384163b156113f257604051630a85bd0160e11b81526001600160a01b0385169063150b7a0290611340903390899088908890600401612159565b6020604051808303816000875af192505050801561137b575060408051601f3d908101601f1916820190925261137891810190612196565b60015b6113d8573d8080156113a9576040519150601f19603f3d011682016040523d82523d6000602084013e6113ae565b606091505b5080516000036113d05760405162461bcd60e51b81526004016104d090612063565b805181602001fd5b6001600160e01b031916630a85bd0160e11b149050610618565b506001949350505050565b606061140882610b1a565b600061141f60408051602081019091526000815290565b9050600081511161143f576040518060200160405280600081525061146a565b80611449846117fa565b60405160200161145a9291906120b5565b6040516020818303038152906040525b9392505050565b60006001600160e01b031982166380ac58cd60e01b14806114a257506001600160e01b03198216635b5e139f60e01b145b8061039d57506301ffc9a760e01b6001600160e01b031983161461039d565b606061039d6001600160a01b03831660145b606060006114e28360026121c9565b6114ed9060026121e0565b67ffffffffffffffff81111561150557611505611b0f565b6040519080825280601f01601f19166020018201604052801561152f576020820181803683370190505b509050600360fc1b8160008151811061154a5761154a6121f3565b60200101906001600160f81b031916908160001a905350600f60fb1b81600181518110611579576115796121f3565b60200101906001600160f81b031916908160001a905350600061159d8460026121c9565b6115a89060016121e0565b90505b6001811115611620576f181899199a1a9b1b9c1cb0b131b232b360811b85600f16601081106115dc576115dc6121f3565b1a60f81b8282815181106115f2576115f26121f3565b60200101906001600160f81b031916908160001a90535060049490941c9361161981612209565b90506115ab565b50831561146a5760405162461bcd60e51b815260206004820181905260248201527f537472696e67733a20686578206c656e67746820696e73756666696369656e7460448201526064016104d0565b6001600160a01b0382166116c55760405162461bcd60e51b815260206004820181905260248201527f4552433732313a206d696e7420746f20746865207a65726f206164647265737360448201526064016104d0565b6000818152606760205260409020546001600160a01b03161561172a5760405162461bcd60e51b815260206004820152601c60248201527f4552433732313a20746f6b656e20616c7265616479206d696e7465640000000060448201526064016104d0565b6000818152606760205260409020546001600160a01b03161561178f5760405162461bcd60e51b815260206004820152601c60248201527f4552433732313a20746f6b656e20616c7265616479206d696e7465640000000060448201526064016104d0565b6001600160a01b038216600081815260686020908152604080832080546001019055848352606790915280822080546001600160a01b0319168417905551839291907fddf252ad1be2c89b69c2b068fc378daa952ba7f163c4a11628f55a4df523b3ef908290a45050565b606060006118078361188d565b600101905060008167ffffffffffffffff81111561182757611827611b0f565b6040519080825280601f01601f191660200182016040528015611851576020820181803683370190505b5090508181016020015b600019016f181899199a1a9b1b9c1cb0b131b232b360811b600a86061a8153600a850494508461185b57509392505050565b60008072184f03e93ff9f4daa797ed6e38ed64bf6a1f0160401b83106118cc5772184f03e93ff9f4daa797ed6e38ed64bf6a1f0160401b830492506040015b6d04ee2d6d415b85acef810000000083106118f8576d04ee2d6d415b85acef8100000000830492506020015b662386f26fc10000831061191657662386f26fc10000830492506010015b6305f5e100831061192e576305f5e100830492506008015b612710831061194257612710830492506004015b60648310611954576064830492506002015b600a831061039d5760010192915050565b6001600160e01b031981168114610b7957600080fd5b60006020828403121561198d57600080fd5b813561146a81611965565b60005b838110156119b357818101518382015260200161199b565b50506000910152565b600081518084526119d4816020860160208601611998565b601f01601f19169290920160200192915050565b60208152600061146a60208301846119bc565b600060208284031215611a0d57600080fd5b5035919050565b6001600160a01b0381168114610b7957600080fd5b60008060408385031215611a3c57600080fd5b8235611a4781611a14565b946020939093013593505050565b600080600060608486031215611a6a57600080fd5b8335611a7581611a14565b92506020840135611a8581611a14565b929592945050506040919091013590565b60008060408385031215611aa957600080fd5b823591506020830135611abb81611a14565b809150509250929050565b60008083601f840112611ad857600080fd5b50813567ffffffffffffffff811115611af057600080fd5b602083019150836020828501011115611b0857600080fd5b9250929050565b634e487b7160e01b600052604160045260246000fd5b600067ffffffffffffffff80841115611b4057611b40611b0f565b604051601f8501601f19908116603f01168101908282118183101715611b6857611b68611b0f565b81604052809350858152868686011115611b8157600080fd5b858560208301376000602087830101525050509392505050565b600082601f830112611bac57600080fd5b61146a83833560208501611b25565b60008060008060008060008060c0898b031215611bd757600080fd5b883567ffffffffffffffff80821115611bef57600080fd5b611bfb8c838d01611ac6565b909a50985060208b0135915080821115611c1457600080fd5b611c208c838d01611ac6565b909850965060408b01359150611c3582611a14565b90945060608a01359080821115611c4b57600080fd5b50611c588b828c01611b9b565b9350506080890135611c6981611a14565b915060a0890135611c7981611a14565b809150509295985092959890939650565b600060208284031215611c9c57600080fd5b813561146a81611a14565b60008060408385031215611cba57600080fd5b8235611cc581611a14565b915060208301358015158114611abb57600080fd5b60008060008060808587031215611cf057600080fd5b8435611cfb81611a14565b93506020850135611d0b81611a14565b925060408501359150606085013567ffffffffffffffff811115611d2e57600080fd5b8501601f81018713611d3f57600080fd5b611d4e87823560208401611b25565b91505092959194509250565b60008060408385031215611d6d57600080fd5b8235611d7881611a14565b9150602083013567ffffffffffffffff811115611d9457600080fd5b611da085828601611b9b565b9150509250929050565b60008060408385031215611dbd57600080fd5b8235611dc881611a14565b91506020830135611abb81611a14565b600181811c90821680611dec57607f821691505b602082108103611e0c57634e487b7160e01b600052602260045260246000fd5b50919050565b600060018060a01b03808916835287602084015280871660408401525084606083015283608083015260c060a0830152611e4f60c08301846119bc565b98975050505050505050565b600060208284031215611e6d57600080fd5b815161146a81611a14565b6020808252602d908201527f4552433732313a2063616c6c6572206973206e6f7420746f6b656e206f776e6560408201526c1c881bdc88185c1c1c9bdd9959609a1b606082015260800190565b60208082526025908201527f4552433732313a207472616e736665722066726f6d20696e636f72726563742060408201526437bbb732b960d91b606082015260800190565b6020808252602b908201527f496e697469616c697a61626c653a20636f6e7472616374206973206e6f74206960408201526a6e697469616c697a696e6760a81b606082015260800190565b601f82111561057157600081815260208120601f850160051c81016020861015611f7c5750805b601f850160051c820191505b81811015611f9b57828155600101611f88565b505050505050565b815167ffffffffffffffff811115611fbd57611fbd611b0f565b611fd181611fcb8454611dd8565b84611f55565b602080601f8311600181146120065760008415611fee5750858301515b600019600386901b1c1916600185901b178555611f9b565b600085815260208120601f198616915b8281101561203557888601518255948401946001909101908401612016565b50858210156120535787850151600019600388901b60f8161c191681555b5050505050600190811b01905550565b60208082526032908201527f4552433732313a207472616e7366657220746f206e6f6e20455243373231526560408201527131b2b4bb32b91034b6b83632b6b2b73a32b960711b606082015260800190565b600083516120c7818460208801611998565b8351908301906120db818360208801611998565b01949350505050565b7f416363657373436f6e74726f6c3a206163636f756e742000000000000000000081526000835161211c816017850160208801611998565b7001034b99036b4b9b9b4b733903937b6329607d1b601791840191820152835161214d816028840160208801611998565b01602801949350505050565b6001600160a01b038581168252841660208201526040810183905260806060820181905260009061218c908301846119bc565b9695505050505050565b6000602082840312156121a857600080fd5b815161146a81611965565b634e487b7160e01b600052601160045260246000fd5b808202811582820484141761039d5761039d6121b3565b8082018082111561039d5761039d6121b3565b634e487b7160e01b600052603260045260246000fd5b600081612218576122186121b3565b50600019019056fea264697066735822122021c535f4255f40962c3b3ae86ff9061e34676ee74584d8e1f4b6ab096be6f1f664736f6c63430008110033",
  "devdoc": {
    "kind": "dev",
    "methods": {
      "approve(address,uint256)": {
        "details": "See {IERC721-approve}."
      },
      "balanceOf(address)": {
        "details": "See {IERC721-balanceOf}."
      },
      "constructor": {
        "custom:oz-upgrades-unsafe-allow": "constructor"
      },
      "getApproved(uint256)": {
        "details": "See {IERC721-getApproved}."
      },
      "getRoleAdmin(bytes32)": {
        "details": "Returns the admin role that controls `role`. See {grantRole} and {revokeRole}. To change a role's admin, use {_setRoleAdmin}."
      },
      "grantRole(bytes32,address)": {
        "details": "Grants `role` to `account`. If `account` had not been already granted `role`, emits a {RoleGranted} event. Requirements: - the caller must have ``role``'s admin role. May emit a {RoleGranted} event."
      },
      "hasRole(bytes32,address)": {
        "details": "Returns `true` if `account` has been granted `role`."
      },
      "isApprovedForAll(address,address)": {
        "details": "See {IERC721-isApprovedForAll}."
      },
      "name()": {
        "details": "See {IERC721Metadata-name}."
      },
      "ownerOf(uint256)": {
        "details": "See {IERC721-ownerOf}."
      },
      "renounceRole(bytes32,address)": {
        "details": "Revokes `role` from the calling account. Roles are often managed via {grantRole} and {revokeRole}: this function's purpose is to provide a mechanism for accounts to lose their privileges if they are compromised (such as when a trusted device is misplaced). If the calling account had been revoked `role`, emits a {RoleRevoked} event. Requirements: - the caller must be `account`. May emit a {RoleRevoked} event."
      },
      "revokeRole(bytes32,address)": {
        "details": "Revokes `role` from `account`. If `account` had been granted `role`, emits a {RoleRevoked} event. Requirements: - the caller must have ``role``'s admin role. May emit a {RoleRevoked} event."
      },
      "safeTransferFrom(address,address,uint256)": {
        "details": "See {IERC721-safeTransferFrom}."
      },
      "safeTransferFrom(address,address,uint256,bytes)": {
        "details": "See {IERC721-safeTransferFrom}."
      },
      "setApprovalForAll(address,bool)": {
        "details": "See {IERC721-setApprovalForAll}."
      },
      "symbol()": {
        "details": "See {IERC721Metadata-symbol}."
      },
      "transferFrom(address,address,uint256)": {
        "details": "See {IERC721-transferFrom}."
      }
    },
    "version": 1
  },
  "userdoc": {
    "kind": "user",
    "methods": {},
    "version": 1
  },
  "storageLayout": {
    "storage": [
      {
        "astId": 443,
        "contract": "contracts/BasketNFT.sol:BaseketNFT",
        "label": "_initialized",
        "offset": 0,
        "slot": "0",
        "type": "t_uint8"
      },
      {
        "astId": 446,
        "contract": "contracts/BasketNFT.sol:BaseketNFT",
        "label": "_initializing",
        "offset": 1,
        "slot": "0",
        "type": "t_bool"
      },
      {
        "astId": 2265,
        "contract": "contracts/BasketNFT.sol:BaseketNFT",
        "label": "__gap",
        "offset": 0,
        "slot": "1",
        "type": "t_array(t_uint256)50_storage"
      },
      {
        "astId": 2612,
        "contract": "contracts/BasketNFT.sol:BaseketNFT",
        "label": "__gap",
        "offset": 0,
        "slot": "51",
        "type": "t_array(t_uint256)50_storage"
      },
      {
        "astId": 634,
        "contract": "contracts/BasketNFT.sol:BaseketNFT",
        "label": "_name",
        "offset": 0,
        "slot": "101",
        "type": "t_string_storage"
      },
      {
        "astId": 636,
        "contract": "contracts/BasketNFT.sol:BaseketNFT",
        "label": "_symbol",
        "offset": 0,
        "slot": "102",
        "type": "t_string_storage"
      },
      {
        "astId": 640,
        "contract": "contracts/BasketNFT.sol:BaseketNFT",
        "label": "_owners",
        "offset": 0,
        "slot": "103",
        "type": "t_mapping(t_uint256,t_address)"
      },
      {
        "astId": 644,
        "contract": "contracts/BasketNFT.sol:BaseketNFT",
        "label": "_balances",
        "offset": 0,
        "slot": "104",
        "type": "t_mapping(t_address,t_uint256)"
      },
      {
        "astId": 648,
        "contract": "contracts/BasketNFT.sol:BaseketNFT",
        "label": "_tokenApprovals",
        "offset": 0,
        "slot": "105",
        "type": "t_mapping(t_uint256,t_address)"
      },
      {
        "astId": 654,
        "contract": "contracts/BasketNFT.sol:BaseketNFT",
        "label": "_operatorApprovals",
        "offset": 0,
        "slot": "106",
        "type": "t_mapping(t_address,t_mapping(t_address,t_bool))"
      },
      {
        "astId": 1556,
        "contract": "contracts/BasketNFT.sol:BaseketNFT",
        "label": "__gap",
        "offset": 0,
        "slot": "107",
        "type": "t_array(t_uint256)44_storage"
      },
      {
        "astId": 1722,
        "contract": "contracts/BasketNFT.sol:BaseketNFT",
        "label": "_tokenURIs",
        "offset": 0,
        "slot": "151",
        "type": "t_mapping(t_uint256,t_string_storage)"
      },
      {
        "astId": 1866,
        "contract": "contracts/BasketNFT.sol:BaseketNFT",
        "label": "__gap",
        "offset": 0,
        "slot": "152",
        "type": "t_array(t_uint256)49_storage"
      },
      {
        "astId": 39,
        "contract": "contracts/BasketNFT.sol:BaseketNFT",
        "label": "_roles",
        "offset": 0,
        "slot": "201",
        "type": "t_mapping(t_bytes32,t_struct(RoleData)34_storage)"
      },
      {
        "astId": 334,
        "contract": "contracts/BasketNFT.sol:BaseketNFT",
        "label": "__gap",
        "offset": 0,
        "slot": "202",
        "type": "t_array(t_uint256)49_storage"
      },
      {
        "astId": 3848,
        "contract": "contracts/BasketNFT.sol:BaseketNFT",
        "label": "_tokenIdCounter",
        "offset": 0,
        "slot": "251",
        "type": "t_struct(Counter)2272_storage"
      }
    ],
    "types": {
      "t_address": {
        "encoding": "inplace",
        "label": "address",
        "numberOfBytes": "20"
      },
      "t_array(t_uint256)44_storage": {
        "base": "t_uint256",
        "encoding": "inplace",
        "label": "uint256[44]",
        "numberOfBytes": "1408"
      },
      "t_array(t_uint256)49_storage": {
        "base": "t_uint256",
        "encoding": "inplace",
        "label": "uint256[49]",
        "numberOfBytes": "1568"
      },
      "t_array(t_uint256)50_storage": {
        "base": "t_uint256",
        "encoding": "inplace",
        "label": "uint256[50]",
        "numberOfBytes": "1600"
      },
      "t_bool": {
        "encoding": "inplace",
        "label": "bool",
        "numberOfBytes": "1"
      },
      "t_bytes32": {
        "encoding": "inplace",
        "label": "bytes32",
        "numberOfBytes": "32"
      },
      "t_mapping(t_address,t_bool)": {
        "encoding": "mapping",
        "key": "t_address",
        "label": "mapping(address => bool)",
        "numberOfBytes": "32",
        "value": "t_bool"
      },
      "t_mapping(t_address,t_mapping(t_address,t_bool))": {
        "encoding": "mapping",
        "key": "t_address",
        "label": "mapping(address => mapping(address => bool))",
        "numberOfBytes": "32",
        "value": "t_mapping(t_address,t_bool)"
      },
      "t_mapping(t_address,t_uint256)": {
        "encoding": "mapping",
        "key": "t_address",
        "label": "mapping(address => uint256)",
        "numberOfBytes": "32",
        "value": "t_uint256"
      },
      "t_mapping(t_bytes32,t_struct(RoleData)34_storage)": {
        "encoding": "mapping",
        "key": "t_bytes32",
        "label": "mapping(bytes32 => struct AccessControlUpgradeable.RoleData)",
        "numberOfBytes": "32",
        "value": "t_struct(RoleData)34_storage"
      },
      "t_mapping(t_uint256,t_address)": {
        "encoding": "mapping",
        "key": "t_uint256",
        "label": "mapping(uint256 => address)",
        "numberOfBytes": "32",
        "value": "t_address"
      },
      "t_mapping(t_uint256,t_string_storage)": {
        "encoding": "mapping",
        "key": "t_uint256",
        "label": "mapping(uint256 => string)",
        "numberOfBytes": "32",
        "value": "t_string_storage"
      },
      "t_string_storage": {
        "encoding": "bytes",
        "label": "string",
        "numberOfBytes": "32"
      },
      "t_struct(Counter)2272_storage": {
        "encoding": "inplace",
        "label": "struct CountersUpgradeable.Counter",
        "members": [
          {
            "astId": 2271,
            "contract": "contracts/BasketNFT.sol:BaseketNFT",
            "label": "_value",
            "offset": 0,
            "slot": "0",
            "type": "t_uint256"
          }
        ],
        "numberOfBytes": "32"
      },
      "t_struct(RoleData)34_storage": {
        "encoding": "inplace",
        "label": "struct AccessControlUpgradeable.RoleData",
        "members": [
          {
            "astId": 31,
            "contract": "contracts/BasketNFT.sol:BaseketNFT",
            "label": "members",
            "offset": 0,
            "slot": "0",
            "type": "t_mapping(t_address,t_bool)"
          },
          {
            "astId": 33,
            "contract": "contracts/BasketNFT.sol:BaseketNFT",
            "label": "adminRole",
            "offset": 0,
            "slot": "1",
            "type": "t_bytes32"
          }
        ],
        "numberOfBytes": "64"
      },
      "t_uint256": {
        "encoding": "inplace",
        "label": "uint256",
        "numberOfBytes": "32"
      },
      "t_uint8": {
        "encoding": "inplace",
        "label": "uint8",
        "numberOfBytes": "1"
      }
    }
  }
}