{
  "address": "0x1C86D363ae738bFB5b124ea0fa4083Dd71355049",
  "abi": [
    {
      "inputs": [],
      "stateMutability": "nonpayable",
      "type": "constructor"
    },
    {
      "anonymous": false,
      "inputs": [
        {
          "indexed": true,
          "internalType": "address",
          "name": "owner",
          "type": "address"
        },
        {
          "indexed": false,
          "internalType": "address",
          "name": "nftContract",
          "type": "address"
        }
      ],
      "name": "BaseketNFTCreated",
      "type": "event"
    },
    {
      "anonymous": false,
      "inputs": [
        {
          "indexed": false,
          "internalType": "uint8",
          "name": "version",
          "type": "uint8"
        }
      ],
      "name": "Initialized",
      "type": "event"
    },
    {
      "inputs": [
        {
          "internalType": "string",
          "name": "_name",
          "type": "string"
        },
        {
          "internalType": "string",
          "name": "_symbol",
          "type": "string"
        },
        {
          "internalType": "address",
          "name": "owner",
          "type": "address"
        },
        {
          "internalType": "string",
          "name": "uri",
          "type": "string"
        },
        {
          "internalType": "address",
          "name": "registry",
          "type": "address"
        },
        {
          "internalType": "address",
          "name": "implementation",
          "type": "address"
        }
      ],
      "name": "createBaseketNFT",
      "outputs": [
        {
          "internalType": "address",
          "name": "",
          "type": "address"
        }
      ],
      "stateMutability": "nonpayable",
      "type": "function"
    },
    {
      "inputs": [
        {
          "internalType": "address",
          "name": "user",
          "type": "address"
        }
      ],
      "name": "getContractForUser",
      "outputs": [
        {
          "internalType": "address",
          "name": "",
          "type": "address"
        }
      ],
      "stateMutability": "view",
      "type": "function"
    },
    {
      "inputs": [
        {
          "internalType": "address",
          "name": "_nftImplementation",
          "type": "address"
        }
      ],
      "name": "initialize",
      "outputs": [],
      "stateMutability": "nonpayable",
      "type": "function"
    },
    {
      "inputs": [],
      "name": "nftImplementation",
      "outputs": [
        {
          "internalType": "address",
          "name": "",
          "type": "address"
        }
      ],
      "stateMutability": "view",
      "type": "function"
    },
    {
      "inputs": [
        {
          "internalType": "address",
          "name": "",
          "type": "address"
        }
      ],
      "name": "ownerToContract",
      "outputs": [
        {
          "internalType": "address",
          "name": "",
          "type": "address"
        }
      ],
      "stateMutability": "view",
      "type": "function"
    }
  ],
  "transactionHash": "0x4cba0fce4c72c296fe8df5b1009d94d0ddd97f8a5f2a651186173cd4132fb685",
  "args": [],
  "numDeployments": 1,
  "solcInputHash": "bf3967f20fdf682de5d144ca4874ea13",
  "bytecode": "0x608060405234801561001057600080fd5b5061073e806100206000396000f3fe608060405234801561001057600080fd5b50600436106100575760003560e01c806341b0b8081461005c57806362915280146100a1578063aa30f256146100cd578063c4d66de8146100e0578063f61ac58b146100f5575b600080fd5b61008561006a366004610436565b6001602052600090815260409020546001600160a01b031681565b6040516001600160a01b03909116815260200160405180910390f35b6100856100af366004610436565b6001600160a01b039081166000908152600160205260409020541690565b6100856100db3660046104b7565b61010e565b6100f36100ee366004610436565b610246565b005b600054610085906201000090046001600160a01b031681565b600080898989898960405160200161012a95949392919061061a565b6040516020818303038152906040528051906020012090506000610163600060029054906101000a90046001600160a01b031683610377565b604051635cddc82b60e01b81529091506001600160a01b03821690635cddc82b906101a0908e908e908e908e908e908e908e908e9060040161065c565b600060405180830381600087803b1580156101ba57600080fd5b505af11580156101ce573d6000803e3d6000fd5b50506040516001600160a01b03841681523392507f3128cff8655d12a1185a1fa1f0d42de4fd4bdc51208abe19afe063f69d6d5cd2915060200160405180910390a233600090815260016020526040902080546001600160a01b0319166001600160a01b0383161790559a9950505050505050505050565b600054610100900460ff16158080156102665750600054600160ff909116105b806102805750303b158015610280575060005460ff166001145b6102e85760405162461bcd60e51b815260206004820152602e60248201527f496e697469616c697a61626c653a20636f6e747261637420697320616c72656160448201526d191e481a5b9a5d1a585b1a5e995960921b60648201526084015b60405180910390fd5b6000805460ff19166001179055801561030b576000805461ff0019166101001790555b6000805462010000600160b01b031916620100006001600160a01b038516021790558015610373576000805461ff0019169055604051600181527f7f26b83ff96e1f2b6a682f133852f6798a09c465da95921460cefb38474024989060200160405180910390a15b5050565b6000763d602d80600a3d3981f3363d3d373d3d3d363d730000008360601b60e81c176000526e5af43d82803e903d91602b57fd5bf38360781b1760205281603760096000f590506001600160a01b0381166104145760405162461bcd60e51b815260206004820152601760248201527f455243313136373a2063726561746532206661696c656400000000000000000060448201526064016102df565b92915050565b80356001600160a01b038116811461043157600080fd5b919050565b60006020828403121561044857600080fd5b6104518261041a565b9392505050565b60008083601f84011261046a57600080fd5b50813567ffffffffffffffff81111561048257600080fd5b60208301915083602082850101111561049a57600080fd5b9250929050565b634e487b7160e01b600052604160045260246000fd5b60008060008060008060008060c0898b0312156104d357600080fd5b883567ffffffffffffffff808211156104eb57600080fd5b6104f78c838d01610458565b909a50985060208b013591508082111561051057600080fd5b61051c8c838d01610458565b909850965086915061053060408c0161041a565b955060608b013591508082111561054657600080fd5b818b0191508b601f83011261055a57600080fd5b81358181111561056c5761056c6104a1565b604051601f8201601f19908116603f01168101908382118183101715610594576105946104a1565b816040528281528e60208487010111156105ad57600080fd5b8260208601602083013760006020848301015280975050505050506105d460808a0161041a565b91506105e260a08a0161041a565b90509295985092959890939650565b81835281816020850137506000828201602090810191909152601f909101601f19169091010190565b60608152600061062e6060830187896105f1565b82810360208401526106418186886105f1565b91505060018060a01b03831660408301529695505050505050565b60c08152600061067060c083018a8c6105f1565b602083820381850152610684828a8c6105f1565b6001600160a01b03891660408601528481036060860152875180825290925060005b818110156106c15788810183015184820184015282016106a6565b506000838201830152601f01601f19169091010190506106ec60808301856001600160a01b03169052565b6001600160a01b03831660a0830152999850505050505050505056fea26469706673582212202e670085ddb212c56d42de13c99f7271cb606b1894fdddaac751f348e5e4a71e64736f6c63430008110033",
  "devdoc": {
    "kind": "dev",
    "methods": {},
    "version": 1
  },
  "userdoc": {
    "kind": "user",
    "methods": {},
    "version": 1
  },
  "storageLayout": {
    "storage": [
      {
        "astId": 443,
        "contract": "contracts/BaseketNFTFactory.sol:BaseketNFTFactory",
        "label": "_initialized",
        "offset": 0,
        "slot": "0",
        "type": "t_uint8"
      },
      {
        "astId": 446,
        "contract": "contracts/BaseketNFTFactory.sol:BaseketNFTFactory",
        "label": "_initializing",
        "offset": 1,
        "slot": "0",
        "type": "t_bool"
      },
      {
        "astId": 3700,
        "contract": "contracts/BaseketNFTFactory.sol:BaseketNFTFactory",
        "label": "nftImplementation",
        "offset": 2,
        "slot": "0",
        "type": "t_address"
      },
      {
        "astId": 3704,
        "contract": "contracts/BaseketNFTFactory.sol:BaseketNFTFactory",
        "label": "ownerToContract",
        "offset": 0,
        "slot": "1",
        "type": "t_mapping(t_address,t_address)"
      }
    ],
    "types": {
      "t_address": {
        "encoding": "inplace",
        "label": "address",
        "numberOfBytes": "20"
      },
      "t_bool": {
        "encoding": "inplace",
        "label": "bool",
        "numberOfBytes": "1"
      },
      "t_mapping(t_address,t_address)": {
        "encoding": "mapping",
        "key": "t_address",
        "label": "mapping(address => address)",
        "numberOfBytes": "32",
        "value": "t_address"
      },
      "t_uint8": {
        "encoding": "inplace",
        "label": "uint8",
        "numberOfBytes": "1"
      }
    }
  }
}